:020000041000EA
:1000000000B5324B212058609868022188439860DF
:10001000D860186158612E4B002199600221596106
:100020000121F02299502B49196001219960352056
:1000300000F044F80222904214D00621196600F024
:1000400034F8196E01211966002018661A6600F04E
:100050002CF8196E196E196E052000F02FF8012189
:100060000842F9D1002199601B49196000215960AB
:100070001A491B48016001219960EB211966A021F2
:10008000196600F012F800219960164914480160C1
:100090000121996001BC002800D000471248134993
:1000A000086003C880F30888084703B5996A0420EC
:1000B0000142FBD001200142F8D103BD02B5186610
:1000C0001866FFF7F2FF186E186E02BD00000240BE
:1000D000000000180000070000035F00212200005C
:1000E000F4000018222000A00001001008ED00E03C
:1000F00000000000000000000000000074B24E7A12
:1001000000200420F7010010C3010010C5010010F9
:10011000C1010010C1010010C1010010C101001097
:10012000C1010010C1010010C1010010C701001081
:10013000C1010010C1010010C9010010CB01001065
:10014000CD010010CD010010CD010010CD01001037
:10015000CD010010CD010010CD010010CD01001027
:10016000CD010010CD010010CD010010CD01001017
:10017000CD010010CD010010CD010010CD01001007
:10018000CD010010CD010010CD010010CD010010F7
:10019000CD010010CD010010CD010010CD010010E7
:1001A000CD010010CD010010CD010010CD010010D7
:1001B000CD010010CD010010CD010010CD010010C7
:1001C00000BE00BE00BE00BE00BE00BEEFF3058054
:1001D000103800BEF2EB88712856001050560010FF
:1001E0003802001090A31AE71E481F49086006C88D
:1001F00081F3088810471D480068002801D019487D
:10020000F3E70DA40ECC002902D000F012F8F9E7B4
:100210001749184A002000E001C19142FCD116495B
:100220008847164988471649884700BEFDE701C937
:1002300001C29A42FBD3704750560010C000002004
:10024000E80200207858001000000420000004207C
:100250007858001000100420001004200000000056
:10026000704700000000000008ED00E0000000D032
:10027000E8020020040700208D410010C104001096
:1002800049410010F8B5C04610B5064C2378002B44
:1002900007D1054B002B02D0044800E000BF01232A
:1002A000237010BD7004002000000000284A0010D8
:1002B000044B10B5002B03D00349044800E000BFF5
:1002C00010BDC0460000000074040020284A001041
:1002D00070B5002801D14B0700D470BD01F062FB5E
:1002E00002000B000A490868496814001D00241A1E
:1002F0008D41002D03DCF0D106498C42EDD9064832
:1003000001680131016002490A604B60E5E7C046BF
:1003100068040020A0860100F4060020F0B583B038
:1003200006000F00019201F03DFB04000D00D023F8
:100330001B065A680123B34013405A1E9341DBB297
:100340009F420ED001F02EFB001BA94102000800C5
:1003500001990023984202DCE9D18A42E7D90020C2
:1003600000E0012003B0F0BD10B509494A691F241F
:10037000A243052002434A61D0221206042353629D
:100380009361CB69A3430343CB610823936210BD00
:100390000040014070B5D02424060425A561022048
:1003A000002101F0E9F965610A20002101F0E4F97A
:1003B000A561104A01210320FFF7B0FF002801D1F9
:1003C0000D4870BD01F0EEFA04000D00094A00214D
:1003D0000320FFF7A3FF002801D10748F1E701F050
:1003E000E1FA001BA94102F0FDFC044902F07FFC88
:1003F000E7E7C04630750000000080BF000068429B
:1004000010B58CB00C1C02F0FBFC00900191184A56
:10041000112107A803F072FE0021201C02F0B4FC99
:1004200000281BD0201C02F0EBFC00900191114A27
:10043000112102A803F062FE00F062F90021002001
:1004400000F068F907A800F07BF90021012000F016
:1004500061F902A800F074F90CB010BD02AA064BB5
:1004600013CB13C211001A880A809B788B70E3E7C4
:10047000284A0010384A0010484A001010B50C1CD9
:100480000D4902F081FC00280BD10021201C02F054
:100490007BFC00280AD00949201C02F06FFC0028D0
:1004A00004D0D0231B0640225A6110BDD0231B0666
:1004B00040229A61F9E7C046000020410000A041B7
:1004C000F0B5C64600B503F07FFF384C3849200030
:1004D00004F0F8F90321042000F03EF9032105207F
:1004E00000F03AF900220121042000F04FF9002227
:1004F0000121052000F04AF92721200000F0D8F85A
:1005000000F0FEF82B4C63681F27BB4305263343DE
:100510006360D0252D060123AB62274A536808216A
:100520000B435360254B01220439002000F0BEF933
:10053000636BBB433343636340236B62AB61FFF781
:1005400013FF01F02FFA02000B001D490A604B60F7
:1005500001F028FA06000F0012E01A490968160097
:100560001F00184B186802F014FC174902F0D5FB65
:10057000041C4146FFF744FF4146201CFFF77EFF65
:10058000FA20800001F00AF9FFF704FF804601F02D
:1005900009FA02000B0004000D00A41BBD41002D50
:1005A000DBDCDED109498C42D7D8DAE7D80200205B
:1005B000A08601000040014000C00140D1020010AF
:1005C00068040020F4060020CDCCCC3DFFA393D6D8
:1005D000F0B5CE46474680B585B0040004230343FA
:1005E0006A461373144B99461978144B9846186849
:1005F00000250095012303AA04F09AF9FA26760053
:1006000000273000390001F0B7F804239C436B4603
:100610001C734B461978434618680095012303AABA
:1006200004F086F93000390001F0A6F805B0C0BC2E
:10063000B946B046F0BDC04638020020D0040020C4
:10064000F0B5C64600B584B00F2305009D436DB2DA
:1006500049B20D4308231D43EDB204010C4364B2BB
:100660001C43E4B26B461D730F4B984619780F4F2D
:10067000386800260096012303AA04F059F92800DF
:10068000FFF7A6FF6B461C7343461978386800963F
:10069000012303AA04F04CF92000FFF799FF04B0EE
:1006A00080BCB846F0BDC04638020020D00400200F
:1006B00010B5114B1860114B1970322001F06EF813
:1006C00000213320FFF7BCFF00213220FFF7B8FFE5
:1006D00000210620FFF7B4FF00210C20FFF7B0FF38
:1006E00000212820FFF7ACFF00210120FFF7A8FF21
:1006F000052001F053F810BDD0040020380200207E
:1007000010B500210120FFF79BFF022001F046F801
:1007100010BD000000B583B0084B0193002803DB37
:10072000032802DD032000E0002001AB185C401824
:10073000C0B20021FFF784FF03B000BD80C094D495
:1007400010B5040003E001340121FFF779FF2078A0
:100750000028F8D110BD000010B58300084A9A188F
:10076000126840245440C0222240064CA4466344F0
:100770001A60C000044B9C466044416010BDC046F6
:1007800004C0014004D001400040014080000C4BF7
:100790009C46604400290ED00823002A0DD0042274
:1007A0001343026853400C221340802252019446A6
:1007B0006044036070470023EFE70022F0E7C04683
:1007C00004C0014070B50400D0231B061D68AA00B8
:1007D0000C4BD358002B0AD0002803D0AD00094B96
:1007E000EC5070BD08490D2000F018FBF6E700281A
:1007F000F7D0AD00034BE850002203490D2000F074
:10080000F1F9EEE78C040020D5080010072303401F
:100810009B00C00899403C308000014BC15070479C
:1008200000400140F8B507000D0016001C00FFF75E
:10083000EDFFFB089B00E41807203840800085404E
:10084000002E05D080239B019C4664442560F8BDA2
:10085000C0239B019C4664442560F8E770B5060000
:100860000D00141E0BD1D0231B061B68002B11D0CA
:10087000094B220029003000FFF7D4FF70BD0D2086
:1008800000F076F90028EED1044B054ABD21054859
:1008900003F05EFC044BECE730410140C84A001015
:1008A000F44A0010844A00100041014070B5050070
:1008B0000E0014001800FFF785FF22003100280009
:1008C000FFF7CCFF002C00D170BD01210D2000F0FE
:1008D0003DF9F9E7F0B5D6464F464646C0B5D023B8
:1008E0001B061F68BA001F4BD3589846002F03D031
:1008F0001D4B9946002626E01C4B9946FAE7EB4033
:10090000DB0714D524090135002C1BD03300083334
:10091000AB4217D90F231A00224092462342F1D04E
:10092000BB00134A9B58202DE9D40023E8E7514629
:100930002800FFF76BFF4346002BE3D05146280009
:10094000C047DFE708361D2E06D8F30808339B00A2
:100950004A469C583500D7E7E0BCBA46B146A8469F
:10096000F0BDC0468C0400203041014000410140F0
:10097000E40400200FB400B583B0084803F029FD5B
:10098000049B002B07D005A90191180003F030FD4E
:10099000034803F01EFD012003F0D4FB0C4B0010B4
:1009A0001C4B0010EFF3108072B6034B1B68002B3A
:1009B000FBD0BFF35F8F70472C0100D0BFF35F8F78
:1009C000024B00221A6080F3108870472C0100D07F
:1009D000F8B506000C001500FFF7E4FFE308F71870
:1009E000F15C07222240012393400B4205D1DBB288
:1009F0000B433B70FFF7E2FFF8BD21002800FFF733
:100A0000B9FF0000054A1078431CDBB21370172BA6
:100A100002D9130010221A707047C0463902002014
:100A2000002307E0054A9A189200BFF35F8F002168
:100A3000116001331F2BF5D97047C04640000034C8
:100A4000074B9B68103080001950BFF35F8FBFF3D6
:100A50005F8F044B0021196082F310887047C046F5
:100A600000ED00E0240100D00048704700E400E001
:100A700010B5FFF7F9FF002302E0034A04C0013379
:100A8000072BFAD910BDC0468080808010B5091AA6
:100A9000081F0B4B9C4661440A4A914208D8C30781
:100AA00006D440104005400D074B184380B210BDDE
:100AB0000821064B064AFF31064803F049FBC046B1
:100AC000FC070000FE0F000000E0FFFF204B0010BD
:100AD0007C4D0010504B001010B5091A04394C0819
:100AE000090B08D14905490D064A11430180064BFF
:100AF0002343438010BD1021044B054AFF310548B4
:100B000003F026FB00F0FFFF00F8FFFF904B001002
:100B1000584D0010504B001001238340034A1068C9
:100B20001840431E9841C0B27047C04600E100E043
:100B3000002A05D0044BC02252009950196070471A
:100B4000014A8023D150FAE700E100E010B50A0025
:100B50001F230340012199404009FFF7E9FF10BD21
:100B6000024B9B6810308000C058704700ED00E0D9
:100B700010B5FFF7F5FF002806D0044B984201D0CE
:100B8000012010BD0020FCE70020FAE7CD01001095
:100B900070B504000D00EFF3108672B60C4B1B68A5
:100BA000002BFBD0BFF35F8F2000FFF7D9FF094B6D
:100BB000984201D0A84205D1320029002000FFF759
:100BC0003FFF70BD044B054AE721054803F0C0FA1A
:100BD000240100D0CD010010A04B0010B04D00103A
:100BE000504B0010F0B5DE4657464E464546E0B540
:100BF00089B0814601911500EFF3108B72B6754BE9
:100C00001B68002BFBD0BFF35F8F734B0027DF57B0
:100C1000002F3FDB7C00E419A40070482418062252
:100C2000A2566D4B1A706E4B9A684B4610339B0060
:100C3000D35898461B1A2F2B3AD96A4B984530D176
:100C400005AE694B33807B009A46D8198000634B10
:100C50009846404402306549FFF718FF7080644BA6
:100C6000B380FF23B371F571019B07935744BF0015
:100C700047440ECE0EC701231C43A0465A464146A8
:100C80004846FFF7DDFE09B0F0BCBB46B246A946B8
:100C9000A046F0BD7421574B574AFF31574803F027
:100CA00057FABD21564B544A4900544803F050FAB4
:100CB000012342469A439246101A0C2101F0B6F9DC
:100CC00000290FD153460026DA79AA4212D906210B
:100CD000595600290DDB4A00521892001E003F4B66
:100CE0009B18F1E78C21474B434AFF31434803F0FF
:100CF0002FFA1E00002E3BD005AB434A1A80813AE2
:100D00005A800623F3560293002B17DA3F4805ABAF
:100D10009A469880029A9A71DD71019A0792301D65
:100D20002100FFF7B3FEB080B7717B00DB199B0099
:100D30002A4FFF18534607CB07C79FE77800C01913
:100D40008000264BC0180430321DB388D90A1C29F4
:100D500007D15B055915023149005118FFF796FE7E
:100D6000D5E716212A4B2B4AFF31244803F0F0F92E
:100D700005AE1D4B33807B000293D8198000174AC3
:100D80009046020042440392901C1849FFF77EFEF1
:100D90007080039A101D5146FFF778FEB0801E4BFD
:100DA00052464146521A524153431B0DB371F571DD
:100DB000019A0792029B9C466744BF0047440ECEAF
:100DC0000EC7114B52461380813B538001231C43B5
:100DD000A04653E7240100D0000700203C02002079
:100DE00000ED00E0CD01001000A1FFFF6C0200202B
:100DF00001BDFFFFD84B0010984D0010504B001064
:100E0000004C0010284C00100148000001BD0000FB
:100E1000AC4C0010884D0010AAAA0000F0B5CE46D8
:100E2000474680B583B006000D00EFF3108872B618
:100E3000564B1B68002BFBD0BFF35F8F544B9A6857
:100E400034001034A300D758524B9F4207D0AF4212
:100E500000D198E00197504BFB1A2F2B09D942463D
:100E600039003000FFF7ECFD03B0C0BCB946B04616
:100E7000F0BD3000FFF750FE814600213000FFF743
:100E800065FEBFF35F8FEFF30581002901D08C422F
:100E900011D10123019C9C430022A3689D4212D0E2
:100EA0000622A256002A0DDB53009B189B0022004D
:100EB000394CE418F1E7FA21384B394AFF31394807
:100EC00003F046F922009D4257D106256557002DB3
:100ED00039DB6B005B199A002F4B9B189A68A26054
:100EE000DA79E27106229A56A2719B795BB2002BE5
:100EF0000FDA2D48A0806B005B199B00264AD3189F
:100F00002A4A11789971157049463000FFF71EFE84
:100F1000A5E7201D6B005B199B001F4A9B181A1D3B
:100F20009B88D90A1C2907D15B055B150233590040
:100F30005118FFF7ABFDDDE716211D4B1D4AFF31B0
:100F4000184803F005F9002912D1002A0ED0FF231A
:100F50009371194B9380154A1378A371174B0E495F
:100F6000641A644163431B0D1370CDE7094FF2E728
:100F7000201D1349FFF7B0FDC6E7124B084A12497E
:100F8000084803F0E5F8034F69E7C046240100D0A4
:100F900000ED00E0CD0100103C020020C44C001028
:100FA000684D0010504B001001BD000000070020EC
:100FB000AC4C0010884D001001BDFFFFAAAA000034
:100FC00076020020F84C00103B02000070B50121B1
:100FD00001432D4BCB1A2F2B28D8EFF30583002B81
:100FE0002BD0EFF3108C72B6284A1268002AFBD07F
:100FF000BFF35F8F264A0400234D641B64416243A4
:10100000120D54B2234A92689B00D2588A421AD0D9
:101010000022032A31D853009B189B001A49CB1891
:101020009B795BB2A3421ED00132F2E79D211A4B9D
:101030001A4A89001A4803F08BF81A4B174A1A49C2
:10104000174803F085F8134A92681849D150184B95
:101050001A7882711C70BFF35F8F0C4B00221A60EC
:101060008CF3108870BD0D00530099188900691821
:10107000FF268E710F4A8A80E9E7A2210E4B074AAC
:101080008900074803F064F83C020020240100D0E6
:10109000AAAA000000ED00E0004D00103C4D001039
:1010A000504B0010284D001077020000CD010010B9
:1010B0000007002001BDFFFF344D0010024B9C468D
:1010C00061448900016070474000003410B504009D
:1010D000FFF798FC01002000FFF7F0FFFF232371CA
:1010E000BFF35F8F10BD10B50400FFF78BFC01004C
:1010F0002000FFF7E3FFFF23237100236371BFF399
:101100005F8F10BD10B50D4C09E00D4B0D4A1A2133
:101110000D4803F01DF82000FFF7D8FF08340B4BF3
:101120009C4209D22368002BF5D0012BEDD1200081
:10113000FFF7D9FF0834F2E710BDC046E0020020F7
:10114000CC4D0010A04E0010EC4D0010E802002025
:1011500000040843704700000A4B1A68EFF310813F
:1011600072B61368002BFCD0BFF35F8F054B1B6872
:10117000BFF35F8F00221A6081F3108840BF002008
:1011800000217047F0060020F0B5DE4657464E4677
:101190004546E0B585B0EFF3058303221A40934638
:1011A0009200B34BD35898461B785B4507D1012377
:1011B0005A4693401A000393AE4B1A6015E1AE4BAA
:1011C000AE4A9221AE4802F0C3FF5B004B44DB0005
:1011D0004246526992469A4453469E68DF68A9483F
:1011E00000F0AEFB801BB941002900DA07E1002FB7
:1011F00060DB53461C69A44B9C4244D04346082004
:10120000185E5346598889B2FFF7A2FF53465969C1
:10121000A04704000D0023002B434BD0002D3CDAE7
:1012200030003900001BA9410090019153460098FD
:1012300001999860D96000255D5F002D00DADEE03D
:1012400043465C696B005B19DB00E3189A68DB6856
:10125000801A9941002900DAD1E043461D814746B2
:1012600008370023FE5E002E1FDB7500AD19ED0070
:101270006519009A019BA868E968121A8B41002B36
:1012800013DB2F00EDE753465C6920002369984784
:1012900000280FD065682468BDE77A4800F050FB4D
:1012A0000019694100900191C0E753461E804B46EA
:1012B0003B80A4E0534600229B5E424613811269A4
:1012C000EFF3108372B611680029FCD0BFF35F8F73
:1012D00042460221525E51460A80424649465180AA
:1012E0001269BFF35F8F0021116083F3108886E0DD
:1012F00043461A69EFF3108172B61368002BFCD0D5
:10130000BFF35F8F43469B881BB2994601235B4224
:10131000424693801369BFF35F8F00221A6081F306
:10132000108818E026000023F55E002D0BDB6C0012
:101330006419E4003C19009A019BA068E168121A44
:101340008B41002BEEDA4B463380634600229B5ED6
:10135000994663461D804B46002B56DB43465F692A
:101360004B465B004B44DB009C46BC446346DC6858
:101370009B680093019446460836D4E70023424612
:1013800093714146083143460820185E11E001225E
:101390005242D317A260E360434608229B5E834219
:1013A00006D00D80434608229B5E23804346188169
:1013B0002800431C2DD043465A6943001B18DB000C
:1013C000D418D55E63881BB2002BE0DB2100EFE769
:1013D0005B4604339B002B4A9C502A4800F0B0FA2D
:1013E000241A8D41002D3ADC37D0264B039A5A63DC
:1013F000434608229B5E9946002B00DBE5E6434608
:101400009B881BB2002B00DB72E743469B79002BC5
:10141000B4D1434608229A5E002A20DB53009B1871
:10142000DB0042465269944663449C68DD68631C55
:1014300001D16B1CD1D0134B996A601A5A46043201
:101440009200D3585B1A9842C2D30E4B1A6A0123FA
:1014500059468B401342C0D1BAE7002CC5D040BFDB
:1014600005B0F0BCBB46B246A946A046F0BDC0469A
:10147000D40400203C700540B44E0010A84F00106A
:10148000E04E00100040054089110010F8B5CE462E
:10149000474680B50600884691461F00C160FFF7A9
:1014A000B1FA1B4B9C466044800030614B46337060
:1014B000BBB27381D022120612787270012252429E
:1014C0003281B2809B187380002406E0631E6500A1
:1014D0002D19ED00726953530134BC42F6D34B46CB
:1014E0009A000C4BD65001244B469C4043461C624C
:1014F00009494846FFF74CFB01214846FFF726FB08
:10150000064941440C60C0BCB946B046F8BDC0466F
:1015100040000034D404002089110010382000005D
:1015200010B5064B1B69002B01D0044810BD044BBD
:10153000044A6521044802F00BFEC04684020020E4
:101540001C4F0010904F0010E04E0010F0B5C64642
:1015500000B504000069EFF3108C72B60168002931
:10156000FCD0BFF35F8F0221665E7500AD19ED0000
:10157000616988464544002E02DB0020295E6180B7
:101580002169BFF35F8F002008608CF31088002E64
:101590002EDB0699296107996961AA60EB606B8867
:1015A00001335B04590C002B00D10121698030000C
:1015B000FFF7CEFD2269EFF3108172B61368002B9E
:1015C000FCD0BFF35F8FA3882B80A6802369BFF375
:1015D0005F8F00221A6081F31088E368217801325E
:1015E0008A4005498C4663441A6080BCB846F0BD09
:1015F00001204042F9E7C0463C20000070B582B0AF
:10160000060014001D0008AB1B78002B07D100F06A
:10161000C9F922002B00121A8B41002B0ADB079B11
:101620000193069B009322002B003000FFF78EFFF2
:1016300002B070BD0020FBE710B5030008145A8902
:1016400090422FDA42001218D20058698446624450
:101650001C69EFF3108C72B620680028FCD0BFF331
:101660005F8F508880B20904090C884212D0002094
:101670001A69BFF35F8F002111608CF31088002876
:1016800011D0DA681B7801319940074B9C466244BF
:10169000116008E00549084380B2508001229A7128
:1016A0000120E5E7002010BD3C2000000080FFFF86
:1016B000F0B585B006000F00EFF30583002B1AD1BB
:1016C00006246442E517A4197D418D4202D803D156
:1016D000844201D90024002500F064F922002B0087
:1016E000121A8B41002B0BDC08D03000390000F0BF
:1016F0006BF905B0F0BD1C48FFF73CF9002AF4D0A7
:10170000FFF70EFF002302930193184B0093220072
:101710002B00FFF773FF002818DAE6E7002300E04C
:101720000023002BE1D1124B1A68EFF3108172B63F
:101730001368002BFCD0BFF35F8F0D4B1B68BFF30A
:101740005F8F00221A6081F3108820BF094B5B6A0B
:101750009D42E5D80749896AA14203D29D42DDD066
:101760000123DEE70123DCE7404F00105911001090
:10177000F00600200040054070B504000D0000F0A8
:1017800011F900196941002902DBFFF791FF70BDD3
:10179000012040420049F8E7FFFFFF7F10B5FA2221
:1017A00092000023002101F07BFAFFF7E5FF10BD56
:1017B000F0B5CE46474680B585B005000C00EFF386
:1017C0000583002B15D0474B5B6A8B4209D3454AF2
:1017D000926A82420BD28B4201D0012002E00020AB
:1017E00000E0002005B0C0BCB946B046F0BD012005
:1017F000F8E7FFF795FEC3689946037898462E00F0
:101800002700484600F09CF802000B00B61A9F41E2
:10181000434604339B004A469B58181A0023BB4298
:101820000FDC0CD020BF2F4B5B6A9C4224D82D4A82
:10183000926AAA4222D29C421CD00120D2E7B04236
:10184000F0D9FFF76DFE002302930193264B00931E
:101850002A002300FFF7D2FE061E11DD214B5B6A32
:101860009C4221D81F4A926AAA4232D29C4219D085
:1018700001231AE00020B5E70020B3E70120B1E71B
:10188000184B5B6A9C4209D8164A926AAA4207D250
:101890009C4201D00120A5E70020A3E70020A1E79A
:1018A00001209FE7002300E00023002B00D120BF90
:1018B000FFF736FE3100FFF7BFFE0A4B5B6A9C4222
:1018C0000BD8084A926AAA4209D29C4203D001204E
:1018D00088E70123E9E7002084E7002082E7012070
:1018E00080E7C0460040054059110010004870478D
:1018F0000040054010B50B4B1B69002B04D00A219A
:101900000948FFF7DBFB10BDFFF7F0FF04000321E0
:1019100000F00CF81023032221000248FFF7B6FD67
:10192000EDE7C04684020020F006002010B5024A10
:101930000248FFF74DF810BDC04F00109C04002076
:101940000200436A906A1900536A9942FAD17047BB
:10195000416A00E0416A9942FCD300E0416A994241
:1019600002D1816A9142F9D37047F0B5C64600B5FD
:10197000804614001D00FFF7E3FF06000F00220061
:101980002B0092197B41994202D804D1904202D98E
:1019900001225242D3174046FFF7DAFF80BCB84617
:1019A000F0BD000010B50248FFF7CAFF10BDC046E9
:1019B0000040054010B502000B000248FFF7D5FFBC
:1019C00010BDC0460040054010B502000B000248A3
:1019D000FFF7BEFF10BDC0460040054070B5046B68
:1019E000E30701D4200070BD0B4BC3180B4A1A60EB
:1019F000456A826AAD01AD18AD02062000F026F9F5
:101A0000074900F013FB0100280000F00FFB002144
:101A1000FFF7D0FFE6E7C0463030000001030000CA
:101A20004E0E000070B504000E001500FFF7D6FF43
:101A3000E16A4E403540024BE3181D60206370BDE3
:101A40002C10000070B505000C00062000F0FEF818
:101A5000C000210000F0EAFA0130C60907D00E4BA1
:101A60009E4215D8400834003F26064000E001247D
:101A70006C62AE62002200212800FFF7D3FF06202F
:101A800000F0E4F88000A101891900F0CFFA70BDE0
:101A90000026024CECE7C046FEFF0000FFFF0000FE
:101AA000002909D00A22064B9C4660444342584113
:101AB0004000044BC252704780225200F3E7C046F8
:101AC0000080FCBFF806002070B505000C00062061
:101AD00000F0BCF8002828D0164B9D4226D01622D4
:101AE00001239340144A1360124B9D4220D01623C9
:101AF00001229A40114B1A60114B1B681100994347
:101B0000FAD100212800FFF7CBFF21002800FFF7C2
:101B100099FFEB6A70225A407E231340094AAA18A3
:101B20001360094B2B630323AB6470BD1722D7E707
:101B30001723DDE70080034000E0004000F0004094
:101B400008C000402C10000001030000F8B5D64684
:101B5000474680B506000D0017009846440024183B
:101B6000A400294B9C4664446368089A934200D2BF
:101B70006260331FDBB29A46012B2ED980221201FC
:101B8000C0239B01E3181A60B300204A995800292A
:101B900007D0506900F04AFA431C5800C0180338B7
:101BA000FDD27F0122685740E022174080235B016D
:101BB000E3181F605246012A1AD980239B01E318BB
:101BC000802212011A60089B6360B6000F4B4246E8
:101BD000F250C0BCBA46B046F8BD012DCED10322AA
:101BE000C0239B01E3181A60A368DB07FCD5D8E784
:101BF0002168694003220A401A60A3680122AA40B2
:101C00001A42FAD0D9E7C04600800040A004002064
:101C1000F0B583B005000E0017001800089900F019
:101C200005FA0300089A140200943A0031002800D3
:101C3000FFF78CFF03B0F0BD10B582B080246400C4
:101C40000094FFF783FF02B010BD00008000014B3D
:101C5000C0587047A0040020F0B5C64600B5040087
:101C60000E0017001D00364800F0E0F98046354BA5
:101C7000FA18354B9A4238D80100380000F0D6F9EE
:101C80000200103A98235B009A4234D86B1E062B50
:101C900037D8069B013B062B33D83F09474536D33F
:101CA0002D04069B1A0315432368002B35DB274BB5
:101CB0009C4243D00C2301229A40254B1A60254BAD
:101CC0001A60254B1B6811009943FAD12660A06069
:101CD000224BE218212313602368002BFCDAE56015
:101CE0000823136080BCB846F0BD1D4B1D4A11216E
:101CF0001D4802F02DFA1D4B1A4A19211A4802F00C
:101D000027FA1B4B174A1C21174802F021FA194BDE
:101D1000144A2321144802F01BFA22683F2313407F
:101D2000B342C4D1A3681B051B0D8342BFD1E36836
:101D3000EE22D2021340AB42B9D1D3E70D23BAE76A
:101D4000001BB70080E84BD380F8A93200C00240E6
:101D500000E0004000F0004008C0004004300000F7
:101D6000E44F0010F8500010345000107450001070
:101D700090500010DC50001080239B000B43014A60
:101D8000D36270470080054010B5010018231B88FE
:101D900014221088984710BD10B5010018231B8825
:101DA00016221088984710BDF0B5C64600B507004A
:101DB0000E0000250123984600E00135B5420AD205
:101DC000AC003C192068FFF7DFFF20600028F4D149
:101DD00000239846F1E7404680BCB846F0BD0000BD
:101DE000074BAA2212011A608D225200DA60054BBD
:101DF000054A1A60024B5B68002BFBDA7047C0464D
:101E0000004002400060024000B0FA0010B504003B
:101E100001E008CC9847024B9C42FAD310BDC04663
:101E2000244A00107047000010B50248FFF7EEFF8B
:101E300010BDC046E8490010054B064A1A60064B23
:101E4000064A1A60064B1A68044B9343FAD170474E
:101E500000E00040BFCDFBFE00F00040FE7F3C00F4
:101E600008C00040044BDB6C002B03D1034B8022E5
:101E7000D2021A607047C046000011504C20115029
:101E8000044B054A1A60054B1B68DB43DB01FAD1A2
:101E90007047C04600F00040FFFFFF0108C000404F
:101EA000034B40229A675A671A67DA667047C04642
:101EB00000F0014010B5FEF7B3FD10BD70B5044C45
:101EC000A168044DC022280001F07EF8A56070BD15
:101ED00000ED00E00000002070B50420FFF7B6FE22
:101EE000064900F0A3F805000024002C00DD70BDB9
:101EF000E0B22900FFF740FF0134F6E740420F004F
:101F000030B583B0274B00229A67FFF769FF264B55
:101F100001221A60234B5B6C012BFBD1234B032264
:101F20001A60204B9B6B012BFBD1013300930433D0
:101F30001F4A01211F48FFF78FFE052300931E4A09
:101F400001211E48FFF788FE1D4B002202210420BC
:101F5000FFF772FE1B4D2B00002201210520FFF729
:101F60006BFE194C2300002200210720FFF764FEBE
:101F70002300002200210820FFF75EFE8023DB0003
:101F800000932300002200210920FFF741FE2B00CF
:101F9000002200210620FFF74FFEFFF79DFF03B050
:101FA00030BDC046008000403CB0004030B0004032
:101FB000002F685900800240008C864700C0024014
:101FC000001BB70040597307006CDC020148042174
:101FD000014B1847A0020020A91D0010124A936F60
:101FE0009B0815D29066D166002905D0FFE7FFE770
:101FF000FFE7516F106F704704B580210906C217C3
:102000005140002800D0C84302F0DEFC002104BD8E
:10201000F0B5146E556E576F166FFFF7E3FF146639
:10202000556657671667F0BD000000D0114A936FE0
:102030009B0813D210665166002905D0FFE7FFE721
:10204000FFE7516F106F704704B5002801D00020E2
:10205000C04302F0B9FC002104BDC046F0B5146EC7
:10206000556E576F166FFFF7E5FF14665566576795
:102070001667F0BD000000D094464A4A926F92085D
:10208000624601D228E0C046F0B5464E346E756E09
:10209000776F366F00F020F89446424A1466556612
:1020A000576716676246F0BD94463E4A926F9208A3
:1020B000624601D254E0C046F0B53A4E346E756EB9
:1020C000776F366F00F04CF89446364A14665566C2
:1020D000576716676246F0BD002B24DB11D000293C
:1020E0003EDA00B5C943404200D1013100F038F872
:1020F000C943404200D10131DB43524200D1013398
:1021000000BD002AEBD1002801D1002905D0002014
:10211000C90FC90701D1C043410800B502F04CFC0A
:102120000022002300BD00B500290ADBDB43524238
:1021300000D1013300F014F8C943404200D101310D
:1021400000BDC943404200D10131DB43524200D1BE
:10215000013300F005F8DB43524200D1013300BDEA
:10216000002923D1002B18D1002A0CD0BC460D4FDA
:1021700038667A6600210023FFE7FFE7FFE77A6F02
:10218000386F67467047002801D00748010000B546
:1021900002F012FC0022002300BD02000B00002010
:1021A00000217047000000D0FFFFFFFF002B00D090
:1021B000BFE0130C28D1002AE7D080B4114F396654
:1021C0007A66FFE7FFE730B4040C7B6F396F1B04BE
:1021D00023433B667A66FFE7FFE7FFE7C04684B22A
:1021E0007B6F3D6F1B0423433B667A66FFE7FFE787
:1021F000C04600232C042D0C7A6F386F00196941FA
:10220000B0BC7047000000D0F0B594460025140E15
:1022100001D112020835140F01D112010435940FB7
:1022200001D192000235D40F01D152000135D40BF7
:102230000134254F7C66254C3C660E0C93B2FFE7BB
:10224000FFE7FFE73C6F6643360C7703BE467343F8
:10225000DF0B5B04C01AB941130C7343DB18C91AB6
:10226000CE086643360CB64493B273431F0F1B016E
:10227000C01AB941130C73431F0B1B05C01AB94197
:10228000860D8F023E436643360C092D24DB520A2D
:102290007243801A7703460A6643360C16235B1B8B
:1022A000DE40DF40BF1964466643821B704604353A
:1022B00006330100D940A840C01900D30131A24221
:1022C00006D20023F0BD0000000000D0FFFFFFFF9A
:1022D000121B0130F3D3F1E709277F1BFE40644650
:1022E000A2B27243801A00D20139220C7243130C3D
:1022F0001204821A99410B0070460435133701000D
:10230000F940A840801900D30131002B02D1A2422C
:102310000AD2F0BD013000D30131121BFAD2013BC9
:10232000F8D1A24200D2F0BD013000D30131121B1E
:10233000F7E7F0B51C0C00D080E00CB400251C0AB7
:1023400004D11B02160E3343120208351C0B04D1B4
:102350001B01160F3343120104359C0B04D19B0063
:10236000960F334392000235DC0B02D192185B4189
:1023700001351C00971864410134464F7C66464C79
:102380003C660E0CFFE7FFE7FFE7C0463C6F664385
:10239000360C7703BE4697B27743C01B00D2013993
:1023A000C01B00D201399FB27743C91BC91B170C50
:1023B00077437E04FF0B801BB941CE086643360C81
:1023C0000C2D33DBB644120B1F053A431B0B97B29F
:1023D0007743C01B00D201399FB27743C91B170C4A
:1023E00077433E043F0C801BB941860D8F023E436C
:1023F000664329277F1BFE400C3D7746AF40BF193F
:1024000030BCA2B2ABB272437343801A9941220C22
:102410007243130C1204801A994102000B00013719
:10242000001BA941F9D2781E0021F0BD0C277F1BAB
:10243000FE4077467F0BAF40FF19E0E700245D1CAC
:1024400007D0144F7D663966FFE7FFE7FFE7FFE738
:102450003C6F95B29EB265436643401BB141150C7B
:102460001E0C6543664336042F0C3E432D04401B6F
:10247000B141994204D202000B0020000021F0BDBE
:1024800001D19042F7D3801A994101349942F2D395
:10249000F6E70000000000D0FFFFFFFF484041408A
:1024A000484018B41B4B5B68FC46019308BD04DF31
:1024B0007327001018B4174B1B68FC46019308BD26
:1024C00000DF7D2700109446134A926F920809D2CC
:1024D000624618B40F4BDB68FC46019308BD0CDF65
:1024E000352A00100C4AF0B5146E556E576F166FF2
:1024F0006246FFF7EEFF084A14665566576716678F
:10250000F0BD18B4034B9B68FC46019308BD08DF7F
:10251000D9280010EC040020000000D0FFB5504086
:102520004240504059404B40594000E0FFB5154FE4
:102530004C00640D03D0BC4204D10C0314D800201D
:10254000090D09055C00640D03D0BC4204D11C03D5
:102550000AD800221B0D1B0501264B4009D44B4015
:1025600003D58B4200D18242FFBD9942FCD19042FB
:10257000FFBD0B43DB1803431343F5D0C943491890
:10258000FFBD0000FF07000000B5FFF7CFFF80414F
:1025900000BDC04600B5FFF7C9FF01D9002000BD4E
:1025A000012000BD00B5FFF7B9FF01D9002000BD33
:1025B000012000BD00B5FFF7B1FF804100BD012043
:1025C00040054A00121804D85A00121801D80020F9
:1025D00070470120704700000021002805D1704796
:1025E000C1174840401AFAD0C90713B5064B1B68FB
:1025F00098470CBC441CA2401005120B0349091B50
:1026000009051943114310BDEC0500201F0400000B
:1026100010B54C00620D8023D218DB00D21A5B0586
:102620007E2A10DD9E3A13DACC17090349081943B4
:102630005242D140640001341532202A05DAD040DC
:102640000843604310BD002010BD0846604310BD24
:10265000C80FC018013810BD18B4044B5B6AFC46A3
:10266000019308BD24DFE52B00100000EC040020DE
:1026700070B513231C78012C14D0012C14DC022C0F
:1026800002DC1F4A1F4B9A641F48FFF77DFB1F4B5C
:10269000186070BD99001A481A4A885001331F2BE0
:1026A000F8D9EAE70023FAE71948FFF775FB0500B8
:1026B0001848FFF771FB023803789B007F2B19DD68
:1026C000802229000F4800F07FFC022CD7D1124B4A
:1026D0001A88B5231B029A4209D1104B1A88104B55
:1026E0009A4204D10F4B1A880F4B9A42C7D0002050
:1026F000FEF740F90D4B0E4A33210E4801F028FD3C
:1027000039270010EC0400204C330000EC050020B9
:10271000534400005346000054380000D8380000ED
:10272000494600009C380000594600000451001042
:102730009C5100104851001007B56046002800D198
:1027400000BE01880A0A0230DF2AFAD1C9B2820823
:1027500004D3028840880004104300E00068024A65
:102760005050039007BD0000EC0400200FB403BCE0
:102770000CBCF0B50124E407634000E0F0B50C0D9B
:10278000CF0F661E3605891B640503D3C94340423B
:1027900000D30131640D03D0661CF60A07D0E41B98
:1027A00000207F00791C89078912803C24031D0DBD
:1027B000DF0F6E1E36059B1B6D0503D3DB435242B4
:1027C00000D301336D0D03D06E1CF60A07D0ED1B4C
:1027D00000227F007B1C9B079B12803D2D032F1B3B
:1027E000661B58D4A446202E46DA20371400BC407D
:1027F0001D00BD40F24033412A4380185941CB0FA0
:1028000005D0C943C0430022644250415141624651
:102810004D0D28D10D0D07D100281FD0241940419E
:102820004941013A0D0DF9D0640006D3013000D3BF
:102830000131002C01D140084000013A0BD4941C16
:10284000E40A04D112051144DB071944F0BDD9078D
:10285000204B194300E0D9070020F0BD0029DDD14D
:10286000002CDBD1F0BD0132C6074008CD0728435C
:102870004908002EE1D0D9E73C2E29DA203E403726
:102880001400BC4000D00124F24014431A00BB40A5
:102890001C43D317ACE7AC46202F08DA20360400DF
:1028A000B4400D00B540F84039412843A5E73C2F1E
:1028B0000CDA203F40360400B44000D00124F84038
:1028C00004430800B1400C43C117EAE710001900A7
:1028D000002494E70000F07FF0B50C0D661E36056D
:1028E000891BE60A6405640D02D0651CED0A04D05C
:1028F000002001210905803C2403A4461C0D671E0D
:102900003F05DB1BE70A6405640D02D0651CED0A78
:1029100004D0002201231B05803C2403774064443B
:1029200097B484B296B27443070C7E43150C6F4380
:1029300080B26843361802D3012000043F183004E7
:10294000350C00197D41844688B29AB250430C0C74
:1029500062431F0C7C438EB27E43921902D3012640
:102960003604A4191604170C3618674101BC81B24D
:102970009AB25143040C62431B0C5C4380B258432F
:10298000121802D30120000424181004130C40185C
:1029900063412D185E410020474106BC88B293B2C6
:1029A00058430C0C6343120C544389B251435B18D7
:1029B00002D301210904641819041A0C0918624190
:1029C0006D1856410020474118BCF902720D1143A1
:1029D000F0026A0D1043ED020A0D03D16D1940415A
:1029E0004941013B124E9B1B7600B3420ED26D0053
:1029F00007D30130002671416646354301D14008B6
:102A000040001B05C918E4072144F0BD0BDA01336F
:102A100006D1013004D101314F0D01D04908F2E750
:102A2000E1070020F0BD013631050020EBE7000092
:102A3000FF030000F0B51C0D671E3F05DB1BE70A16
:102A40006405640D02D0661CF60A04D0002201233E
:102A50001B05803C2403D0252D060026F6432E6658
:102A60001E096E66CE0FF619B44649004F0D02D00E
:102A70007E1CF60A03D000200021403F3F033E1B8E
:102A8000B600B444013F7F05C91B49082E6F0136CB
:102A900076089C02950D25437543ED137543AD13E0
:102AA00001356D10F603761B0CB4CC02450D2C439A
:102AB000A2B2B3B25A43270C7B43350C6F43A4B286
:102AC0006C431B1902D3012424043F191C041D0C60
:102AD000A4187D4124196D41009A91B2ACB26143B2
:102AE000170C7C432B0C5F4392B25A43A41802D3B9
:102AF00001221204BF182204230C52187B41019CAE
:102B00006C431B19520ED9010A434401A01A81B229
:102B1000B2B2514303145A43360C734387B277431E
:102B2000D617D21900277E4136049B191704160CBC
:102B30007F185E417316ED18F3010026803375414E
:102B4000A90F06D16400690AE8055B0A184309D297
:102B50002FE00422944480337541A90AA8059B0AFA
:102B6000184326D3404149412404009A019B0D009B
:102B70005543641B4343E41A95B286B27543170C60
:102B80007E43030C5F4392B25A43B61802D301222C
:102B90001204BF183204330C52197B4152429C413B
:102BA000002C02D40022013051414008CA071043D2
:102BB000490802B06246D7079210084BD218084B5A
:102BC0009A4203D212058918C919F0BD0020002AC3
:102BD00001DC3900F0BD01331905F5E7FD03000004
:102BE000FE070000002200B5203200F004F80800C3
:102BF00000BD000000220B150AD410B5944600F069
:102C000031F81414013400DA0021CB17144C20479A
:102C10000020002170476244343A0CD40C2A07DAB1
:102C200004009140904052422032D440214310BDD4
:102C3000D843D94310BD203207D40C4694405242A9
:102C400020321141D040204310BD0800C917203266
:102C500003D452422032104110BD1800190010BD9B
:102C6000172C00100A0DCC0F531E1B05C91A520554
:102C700003D3C943404200D30131520D03D0531C4A
:102C8000DB0A07D0121B00206400611C890789122F
:102C9000803A1203014BD21A70470000FF03000074
:102CA00051434343C9188C46110C83B24B4310B4B3
:102CB000040C614392B280B2504362431C041B0C6B
:102CC000001910BC59411304120CC0185141614441
:102CD0007047000048404140484000239C46114B4B
:102CE0005B68184700239C460E4B1B6818470E4A2A
:102CF000936F9B0804D200239C460A4BDB6818475D
:102D0000F0B5146E556E576F166FFFF7F4FF064A55
:102D10001466556657671667F0BD00239C46014B45
:102D20009B681847F0050020000000D007B5484018
:102D30004140484001E0C04607B54200120E03D0B2
:102D4000FF2A03D1420218D8C00DC0054A00120E56
:102D500003D0FF2A03D14A020FD8C90DC9050122A9
:102D6000414005D4414001D5814207BD884207BD9D
:102D70000143491801D0C043001807BD00B5FFF753
:102D8000DBFF804100BDC04600B5FFF7CFFF8041AB
:102D900000BD491A002807D108467047C10FC9076E
:102DA00000D54042002817D0F44603B40B4B1B68F3
:102DB000984706BC81409E384042803107D20B06BE
:102DC00007D04900490AC005104308436047013055
:102DD000F8E7490A8902F5E770470000EC05002092
:102DE000054A1047C2179142FAD0044BDB6DFC46EE
:102DF00018475CDF572F00109D2D0010F0050020B4
:102E0000034BDB6FFC4618477CDF892F0010000066
:102E1000F005002070B513231D782A48FEF7BCFF8B
:102E20000400012D11D0012D09DDA31E1B789B008C
:102E30007F2B40DD80222100234800F0C5F8234885
:102E4000FEF7A2FF224B186070BD542201001E48FD
:102E500000F0BAF81F4B1A881F4B9A421CD1A723C7
:102E60009B011A881D4B9A4216D11D4B1A881D4B87
:102E70009A4211D11C4B1A8894239B019A420BD180
:102E80001A4B1A881A4B9A4206D11A4B1A681A4BD7
:102E90009A4201D1152307E01848FDF76BFD990010
:102EA0001748094A885001331F2BF8D9144A064B9A
:102EB0001A62DA61B7E7134B134A4221134801F053
:102EC00047F9C04653460000F00500204C3300008F
:102ED000EC050020EE290000C40F0000C20D000028
:102EE000962B0000C0B50000182B0000CC2A000073
:102EF00010B50000FC2C000051ED87643455001023
:102F0000112F0010B051001034520010E451001085
:102F100007B56046002800D100BE01880A0A0230C9
:102F2000DF2AFAD1C9B2820804D30288408800049B
:102F3000104300E00068024A5050039007BD0000B3
:102F4000F0050020002230B5002906D5CD07054345
:102F50004808013A10E0002230B505000D430FD0BB
:102F6000CD170C16AC4205D1C901440E2143C00156
:102F70000732F6E70500080052423D320149884712
:102F800030BD0000EF290000C30FDB0741000A0E2F
:102F900007D0FF2A08D00909054A891819434007B4
:102FA00070471900002070470249C918FAE700006D
:102FB000000000380000F07F01480421014B184751
:102FC000B0020020A91D0010014B5B6818470000EB
:102FD000B00200209A4200D288547047704710B562
:102FE000002802D00B684968984710BD01000020F6
:102FF00007E083001B185B00501C08601078C018A5
:1030000030380A681378303BDBB2092BF1D97047AE
:10301000F0B5DE4657464E464546E0B583B093468A
:103020001F000C9B9A460D9C0E9B99460F9B9B077D
:1030300003D0B8460F00060022E00192A34688465E
:103040004E46B9460700B44207D2551C4B4641468E
:103050002020B84701342A00F5E73D004F465C4682
:10306000019B9B46B1464646B84637002E0007E016
:10307000013C551C5346185D43463900B0472A00B1
:10308000002CF5D135003E0047460F9B9B0707D427
:10309000100003B0F0BCBB46B246A946A046F0BD46
:1030A000B0464E46B9462F005D46531BB342EFD2A1
:1030B000541C4B4641462020B8472200F5E7F0B5A6
:1030C000CE46474680B585B0944698460C9D0D9CEB
:1030D0000EAB1B789946109A119B129EB7071CD411
:1030E000002B0CD0F7070AD54F46002F02D10C3722
:1030F000374204D0013B02E030272F55013494427F
:1031000001D21F2CF8D9F70707D59C4205D21F2CF6
:1031100003D830272F550134F5E7F70615D5770585
:1031200005D4002C03D0944224D09C4222D00F9A84
:10313000102A2BD00F9A102A30D00F9A022A35D09D
:103140001F2C02D830222A5501341F2C05D84A469C
:10315000002A31D02D222A5501340396029301947E
:10316000009543466246FFF753FF05B0C0BCB94621
:10317000B046F0BD621E012C06D00F9F102F01D06B
:103180001400D4E7023CD2E71400D0E7B206D1D451
:103190001F2CCFD878222A550134D1E7B206CCD5DE
:1031A0001F2CCAD858222A550134C9E71F2CC7D86A
:1031B00060322A550134C3E7720703D52B222A5502
:1031C0000134CAE73207C8D520222A550134C4E7A2
:1031D000F0B5DE4657464E464546E0B593B08146CB
:1031E0008A46089209931CAB10CB1B789B461E9D08
:1031F000219B9846002C03D1102342469A439046C7
:103200008023DB0046461E4042461A4212D0002C64
:1032100022D000260EE03033D9B2771C0AAB995584
:1032200029002000FEF702FFAC4216D31F2F14D84E
:103230003E00040029002000FEF7F8FECBB2092B67
:10324000E9D94246920605D54121C918C9B20A39C1
:10325000C9B2E2E76121F8E7270043460693209BC5
:1032600005931F9B049303955B46029301970AAB5A
:103270000093099B089A51464846FFF720FF13B078
:10328000F0BCBB46B246A946A046F0BDF0B5DE464E
:1032900057464E464546E0B595B0089009910A92CA
:1032A0000B931E9E1F9C20AB1B789B46229B99462E
:1032B000239D269B9A463300234303D11033524665
:1032C0009A4392468023DB0057461F4052461A42DB
:1032D00019D0330023432DD0002714E03033DAB265
:1032E0007B1C98460CABDA554A462B003000210077
:1032F000FEF7DAFEA5421FD819D043461F2B1BD874
:10330000474606000C004A462B0030002100FEF71D
:10331000CBFED3B2092BE1D95246920605D5412204
:10332000D218D2B20A3AD2B2DAE76122F8E7B1454E
:10333000E3D901E00023984653460693259B059365
:10334000249B04934B4603935B46029343460193AD
:103350000CAB00930B9B0A9A09990898FFF7AFFEF4
:1033600015B0F0BCBB46B246A946A046F0BD000071
:10337000F0B5DE4657464E464546E0B591B0834629
:103380008A460C9298461A9C08941B9D0995220027
:103390002B0020002900FFF712F9002800D0E5E0FB
:1033A00001225242D74B20002900FFF703F90028E1
:1033B00000D0DBE001225242D34B20002900FFF76E
:1033C000E3F8002800D0D1E000220023089E30005E
:1033D000099D2900FFF7D8F8002800D0DDE0089803
:1033E0000999069007918023DB001E9A1A400D92DE
:1033F0001E9A1A4201D106231C93069807990400CD
:103400000D000A000600024300D1D1E0080D40057E
:10341000400DBE4CA44660440A03120BBC4B134340
:103420001F00FFF7DDF8BB4ABB4BFFF76AF8BB4A4A
:10343000BB4BFFF73FF804000D000022B94B3000F2
:103440003900FFF72EF8B84AB84BFFF75AF80200D8
:103450000B0020002900FFF72DF8FFF7D9F881466F
:10346000FFF7BEF804000D00B14AB24BFFF749F870
:103470000022B14BFFF71EF8FFF7CAF80600AF4A6B
:10348000AF4B20002900FFF73CF804000D0030008E
:10349000FFF7A6F8AB4AAC4BFFF733F802000B007E
:1034A00020002900FEF7FDFF04000D0002000B00C4
:1034B000FFF727F80A900B91A44BF31800261F057D
:1034C00022002B0020002900FEF7F4FF0E900F9140
:1034D00022002B0000208021C905FEF7E2FF040036
:1034E0000D0000229A4B0A980B99FEF7ECFF002280
:1034F000984BFEF7DFFF02000B000A980B99FEF7CE
:10350000E2FF0022944BFEF7D5FF02000B000A9861
:103510000B99FEF7D8FF02000B0020002900FEF7F0
:10352000C9FF02000B000E980F99FEF7CCFF002296
:10353000774BFEF7BFFF32003B00FEF7E2FF0600CD
:103540000F0004000D00069A079BFFF733F80028D0
:1035500030D001235B429C46E14400227D4B300089
:103560003900FEF7B0FF04000D0023E01E9B04931A
:103570001D9B03931C9B0293089A099B0092019345
:1035800043460C9A5146584600F0FCF811B0F0BC86
:10359000BB46B246A946A046F0BD002300240693D0
:1035A0000794069680231B069C46654407951AE7F8
:1035B000002399464B466333C62B1ED804261E9B18
:1035C0001B0526D52B0023430FD0644A644B069875
:1035D0000799FEF7E7FF002879D00022614B069893
:1035E0000799FEF7D1FF002871D01C9B4B4506DDE3
:1035F0004A46981A431E1C9303E00526DFE7002382
:103600001C938023DB001E9A1A431E92002600237F
:1036100099461D9B9E4264D29F1B02231E9A1A400C
:103620000A921E9A134202D0002E00D000274B4669
:10363000002B07D022002B0006980799FEF743FFC6
:10364000069007910022002308980999FEF79CFF35
:10365000002848D1444B1E9A1340049303971C9BA7
:103660000293069B079C0093019443460C9A514693
:10367000584600F087F8002E00D187E71E9B9B0676
:103680003DD54525441C4346020051462800D847F5
:103690004B46DA179B18534005220592013E0496CB
:1036A000002203920A3202924A46D00F0190009300
:1036B0004346220051465846FFF78AFD0A9B002BDD
:1036C00000D163E702005F460C9E1D9D54E01C9BE9
:1036D000002B9ED00D9B002B9BD01C9B013B1C9371
:1036E00097E7002799E7069C079D22002900802084
:1036F0000006844661440B0006920793AAE76525FD
:10370000C0E7C046FFFFEF7FFFFFEFFF01FCFFFFB9
:103710000000F03FFB799F501344D33FB3C8608B48
:10372000288AC63F0000F83F61436F63A787D23FF6
:1037300071A379094F930A400000E03F1655B5BBCD
:10374000B16B0240EF39FAFE422EE63FFF03000064
:1037500000002C4000002440000018402D431CEBCA
:10376000E2361A3F80842E41FFF7FFFF541C434688
:1037700051462020B8472200931BAB42F6D31000DD
:1037800004E7C046F0B5DE4657464E464546E0B52E
:1037900095B00690079193469946209F1E9A1F9BCD
:1037A00010001900FEF70BFF002831D10122524210
:1037B000BF4B1E981F99FEF7E7FE002837D1012264
:1037C0005242BC4B1E981F99FEF7F4FE00283DD1D3
:1037D0000022B94B1E981F99FEF7ECFE002850D12D
:1037E0000022B64B1E981F99FEF7CEFE002848D146
:1037F000002200231E981F99FEF7C6FE002850D114
:1038000000239846229B5B0500D4B6E0002458E0D4
:10381000229B0393219B029303230193A84B0093C4
:103820004B465A4607990698FFF7F2FB0EE1229B9A
:103830000393219B029304230193A24B00934B46D5
:103840005A4607990698FFF7E3FBFFE00423229A04
:103850001A4022990B4210D09B4B002A0FD0042211
:103860002299039121990291019200934B465A4665
:1038700007990698FFF7CCFBE8E0944BEDE70322AD
:10388000EEE7229B0493219B039302971E9B1F9CB0
:10389000009301944B465A4607990698FFF768FD36
:1038A000D4E01E9A1F9B00200021FEF7FAFD1E9017
:1038B0001F9101239846A5E70CAB30221A55013F12
:1038C00001341F2C01D8092FF6D81E981F99FEF736
:1038D0009FFE0500FEF784FE02000B001E981F9954
:1038E000FEF7DFFDFA007A4B9B181A685B680A92B4
:1038F0000B93FEF706FE08900991FEF7ADFE060059
:10390000FEF76AFE02000B0008980999FEF7C9FD50
:103910000890099100226F4BFEF74CFE00282ED034
:1039200001363000FEF758FE02000B000A980B9992
:10393000FEF730FE002801D001350026002F2CD1E3
:103940002800FEF74DFE02000B001E981F99FEF79F
:10395000A8FD06000F0000225E4BFEF715FE0028B2
:1039600046D100225B4B30003900FEF723FE0028D1
:103970003ED1EB073CD501353AE0062746E7002269
:10398000544B08980999FEF7FFFD0028D6D1002E68
:1039900001D0F307D2D50136D0E7AA461F2C11D8A3
:1039A000013F0A213000FEF741FB651C30310CABB2
:1039B00019550A213000FEF739FB092E0ED90600F1
:1039C0002C00EBE755461F2C0CD87B1E002F09D08E
:1039D0000CAA302111551F000134F4E72B00554685
:1039E0001C00F0E71F2C03D80CAB2E221A55013413
:1039F0001F2C10D80A212800FEF7F0FA661C30317F
:103A00000CAB19550A212800FEF7E8FA051E01D073
:103A10003400EDE734000323229A1340012B1CD01D
:103A20001F2C06D84346002B32D00CAB2D221A5542
:103A30000134229B0393219B029301940CAB0093CE
:103A40004B465A4607990698FFF7E2FA15B0F0BCC4
:103A5000BB46B246A946A046F0BD219B002B13D021
:103A60004346002B02D10C3313420FD0219B013B64
:103A70002193190003E00CAB30221A5501348C421B
:103A8000CED21F2CF7D9CBE72199F8E72199F6E799
:103A9000229B5B0704D50CAB2B221A550134C8E7D7
:103AA000229B1B07C5D50CAB20221A550134C0E759
:103AB000FFFFEFFFFFFFEF7F65CDCD4165CDCDC1AE
:103AC000EC520010F0520010E4520010E0520010CE
:103AD000D85400100000E03FF0B5DE4657464E4691
:103AE0004546E0B593B082468B4690461193002937
:103AF00000D1EBE200275546119B1878002800D131
:103B0000E7E2252809D07C1C43463A005946A847DD
:103B1000119B013311932700EEE701331193002429
:103B2000119A11780B00203BD8B2102803D88300DB
:103B3000D048C3589F460B00303BDBB2092B2CD931
:103B40002A292FD000230A93119B1A782E2A39D0C4
:103B500000239A46119A1378683BD9B2122976D875
:103B60008B00C549CB589F4601231C43013211925B
:103B7000D6E702231C4301321192D1E704231C43F0
:103B800001321192CCE708231C4301321192C7E79E
:103B900010231C4301321192C2E711A8FFF726FA45
:103BA0000A90D1E71C9B1A1D1C921868002804DBA0
:103BB0000A90119B01331193C6E702231C43434231
:103BC0000A93F6E78022D20014435A1C11925A78C5
:103BD0001300303BDBB2092B04D92A2A07D000237B
:103BE0009A46B7E711A8FFF701FA8246B2E71C9B95
:103BF0001A1D1C921868002804DB8246119B0133B1
:103C00001193A7E70020F8E780235B002343511CB2
:103C1000119152786C2A01D01C0018E0C0239B003F
:103C20001C430131119112E080232343511C119157
:103C30005278682A01D01C0009E0C0231C430131DE
:103C4000119104E080235B001C4301321192119B0F
:103C500018780300253BDAB2532A00D92CE29300EE
:103C6000864AD3589F4680239B001C430132119201
:103C7000EDE780235B001C4301321192E7E77828CF
:103C800009D0582838D06F2838D0622838D010236F
:103C90009C430A2600E01026582833D0692803D018
:103CA000642801D00C229443630501D5012294437A
:103CB00069282AD0642828D0A30500D59FE0E30511
:103CC00000D5B8E0630600D4CAE01C9A111D1C910F
:103CD0001168FF220A4005940A9B049353460393FC
:103CE000029600230193009243463A005946280069
:103CF000FFF76EFA070027E01026CDE70826CBE78E
:103D00000226C9E720221443C8E7A30520D4E3050F
:103D100050D4630666D51C9A111D1C911168FF22B0
:103D20000A40D317D118594005940A9B049353466F
:103D300003930296D20F0192009143463A005946EE
:103D40002800FFF745FA0700119B01331193D3E6D2
:103D50001C9BDA1D07218A43110008311C91116850
:103D600053689C46DB170C930D930C9A0D9B100027
:103D700048400E90624653400F930E980F990C9A4C
:103D80000D9B801A99410E900F9108940A9B0793FE
:103D9000534606930496002305936346DA0F029276
:103DA0000090019143463A0059462800FFF76EFA09
:103DB0000700C9E71C9A111D1C911268D317D1186E
:103DC000594005940A9B0493534603930296D20FDD
:103DD0000192009143463A0059462800FFF7F8F94E
:103DE0000700B1E7230605D51C9A111D1C9100237D
:103DF000D25E96E71C9A111D1C91126891E71C9BDC
:103E0000DA1D07218A43110008311C9108940A9B8E
:103E10000793534606930496002305930293136871
:103E200054680093019443463A0059462800FFF72E
:103E30002DFA070088E71C9A111D1C9105940A9B16
:103E4000049353460393029600230193136800934F
:103E500043463A0059462800FFF7BAF9070073E7CE
:103E600023060DD51C9A111D1C9112681204120C08
:103E700031E7C046F85200103C5300108853001040
:103E80001C9A111D1C91126825E746281AD01C9B0C
:103E90000733072293431A0008321C9204940A9AAB
:103EA0000392524602925C681B6800930194434659
:103EB0003A0059462800FFF765FC0700119B0133C3
:103EC000119319E620231C43E1E7672801D0472816
:103ED00002D180231B011C43452801D0472801D172
:103EE00020231C431C9B0733072293431A000832EC
:103EF0001C9204940A9A0392524602925C681B68D0
:103F00000093019443463A0059462800FFF730FADF
:103F10000700119B01331193EEE502231A002240A2
:103F2000924623421FD001241C9B1A1D1C927A1C0E
:103F30009146187843463A005946A8475346002B05
:103F400016D1119B013311934F46D5E5561C4346BC
:103F500059462020B847230032005C1C9D42F5D80A
:103F60003D001700E0E701233A002F000A9DF4E727
:103F70004A46A9460A9D06E0571C4346594620205A
:103F8000C84734003A00661CA542F5D84D46914614
:103F9000D7E71C9B1A1D1C921B6899465346002BA1
:103FA00000D1013B4E4601E0013613003278002A71
:103FB00002D05A1E002BF7D14B46F21A10928023E2
:103FC000DB0026001E401C4203D0524501D9534657
:103FD000109302231A0022400B92234205D03A008C
:103FE00037004C46A946554620E03A00109B5F46F4
:103FF000B3462E0006E0551C434639002020B0474A
:1040000023002A005C1C0A999942F4D835005E46C8
:10401000BB46109437004C46A946554606E01D00A5
:104020000134561C43465946C847320020780028C0
:1040300004D0002FF4D06B1E002DF0D117004D4698
:104040000B9B002B03D1119B0133119354E50A9F65
:10405000109B06E0561C434659462020A8472300E3
:1040600032005C1C9F42F5D81700ECE721231C436B
:104070001C9B1A1D1C921B68009305940823049333
:1040800053460393102302930023019343463A00BF
:1040900059462800FFF79CF80700119B0133119344
:1040A0002AE57C1C43463A0059462520A847119B27
:1040B0000133119327001FE57C1C43463A00594603
:1040C000A847119B01331193270015E50A4B9A4627
:1040D00010E5AA46474502D343465A1E00E03A007F
:1040E000434659460020D047380013B0F0BCBB46C9
:1040F000B246A946A046F0BDDD2F00100CB410B5A5
:1041000084B00A0006AC08CC039400940100044873
:10411000FFF7E2FC04B010BC08BC02B01847C04670
:10412000D52F001000B585B00290039101210093B6
:1041300013004A4202A90248FFF7CEFC05B000BDB9
:10414000DF2F001000BEFDE710B5FFF7FBFF0000FA
:1041500010B582B00C001900002A0CD0084B002AC0
:104160000BD00192009323000200064800F060F992
:104170000120FFF7E7FF044BF1E7034AF1E7C046F0
:1041800028550010385500103455001010B5EFF3C5
:104190000583002B00D000BEFDF746FE034C01E076
:1041A00008CC9847024B9C42FAD310BD244A001019
:1041B000284A001010B50300080011001B6898473A
:1041C00010BD0000F8B507000D001600437D002B60
:1041D00002D0002400200CE003681100280098475A
:1041E0002DE03B7D10E0022115483B689847601C9C
:1041F0000134B44214DA002CF3DD2B19013B1B7897
:104200000D3B5A425341DBB22A5D0A2AF0D1002B02
:10421000EED1A042E7DA211A28183B689847E2E776
:10422000B04203DA311A28183B689847002E06DDA1
:10423000AD19013D2B780D3B5A4253413B75F8BDFA
:104240006855001070B505000368002B16D00C4BA4
:104250001C6805E0290004C92000FFF7B3FF2469AA
:10426000002C09D02368002BF9D0064B1B68002BCB
:10427000F0D0A342F3D1EDE700232B6070BDC04620
:10428000C8040020CC04002070B505000C000B68A9
:10429000802B05D021684B1C23606418257170BDEC
:1042A0000800FFF7CFFFF5E710B5FDF77BFB074AE6
:1042B000002312184B41002B03DB054800F08CFB58
:1042C00010BD01225242034BF7E7C04640420F00A7
:1042D000E0020020FFFFFF7F10B5024800F064FB02
:1042E00010BDC046E0020020F0B5CE46474680B57E
:1042F00083B006000D0090461C00FFF7D5FF8146F5
:104300006B1C05D0002C08D0184F194B1C6807E017
:10431000300000F019FB0500F4E7164FF5E72469BB
:10432000002C17D02368002BF9D0134B1B68002BEF
:1043300001D0A342F3D12A0031002000B847434600
:10434000002BECD06B46D91D0A230B7001222000F4
:10435000B847E4E74B46002B05D1280003B0C0BCAA
:10436000B946B046F0BDFFF7B7FFF6E7C54100100C
:10437000C8040020B5410010CC040020094A01E027
:1043800010331A001368002B08D08342F8D100299B
:1043900007D1036913600023036102E0002900D004
:1043A00010607047C804002010B5064B1C6801E07F
:1043B00098472469002C03D06368002BF8D1F8E7F4
:1043C00010BDC046C804002010B500F03FF9012020
:1043D00010BD70B5050000F0B7FA040001230122FA
:1043E00001002800FFF780FFFFF7DEFF200070BD0F
:1043F00070B5A2B004000E00FFF756FF05000023C1
:1044000001933300220001A90848FFF78BFE040046
:1044100001A8FFF717FFFFF7C7FF002D02D120000B
:1044200022B070BDFFF758FFF9E7C046894200107F
:104430000FB400B583B004A901C90191FFF7D8FFFB
:1044400003B008BC04B01847F0B583B005000E00F7
:1044500000240FE06B46D91D0D230B7000200028AF
:1044600016D193699B06FCD40B781360013001319F
:10447000F5E70134B44219DA0D4B1A682F5D0D4B84
:10448000D31859424B415B000B495B5EBB42E1D004
:104490006B46D91D0F7000200028EAD193699B0656
:1044A000FCD40B78136001300131F5E703B0F0BDA7
:1044B000FC0600200080FCBFF8060020F0B583B0A9
:1044C00006000F00002504E06B4607331B782B70B5
:1044D0002500BD4215DA164B1A6893691024210095
:1044E00019401C420DD16C1C75196B46D81D002952
:1044F000EAD19369DB06FCD4136803700131013003
:10450000F5E70C4B1B68002B0AD0094B1B685022A7
:104510009A63596B183A0A4007498C4663441A60FB
:10452000002D02D0280003B0F0BD033DFAE7C046DD
:10453000FC060020940400203410000010B5064B47
:104540001B68002B06D0054A126800219163044ABB
:104550001068984710BDC04694040020FC06002057
:1045600098040020024B1A6893691B07FCD470471B
:10457000FC06002070B51E4B1B681E4A934209D0F2
:104580001424002803D01C4A1268002A04D00028F2
:104590001AD070BD1524F4E7174B1860174B19603B
:1045A00017492000FCF7F4FA01212000FCF7CEFAAD
:1045B0000F4B1B6850229A63596B183A0A401149F5
:1045C0008C4663441A60E4E70B4A1268002AE0D084
:1045D00000259D6300212000FCF7B8FA084920005F
:1045E000FCF71CFC044B1D60044B1D60D1E7C0466A
:1045F000FC06002000800340940400209804002062
:104600003D4500103410000070B50D001C000D4B2E
:104610001860002A0BDA002C0EDA0A4B1868290001
:10462000FDF752FA01210848FFF7A8FE70BD0221EC
:104630001000FCF791F8EEE702212000FCF78CF85F
:10464000EBE7C046FC060020C002002010B5074B77
:104650001B78074B1B78074B1B78E12101230022B5
:1046600049020548FFF7D0FF10BDC0464456001070
:10467000485600104C56001000400340F0B5DE468E
:1046800057464E464546E0B587B0070093461800AA
:10469000039310AB1A780592119D129A90463B68CD
:1046A0000022DA663B6859603B680132DA660290A4
:1046B000002399460493002600242DE03B79002B2B
:1046C00039D0012337E0059A002A01D0002236E0D4
:1046D000012234E000214046A84706000443E4B22A
:1046E000002E06D13B685B6BDB0602D4002DF1D1B6
:1046F000F6E7002E09D13B6880229A580492002ADE
:1047000028D1002C39D1CA4527D0002C3DD1012316
:104710009C46E144019B9B46029B994535DA039BED
:10472000013B9A46002D02D001214046A8474B4646
:10473000002BC3D000239B02CA45C4D000225202E2
:1047400013435A46013201925A4611783A680B4394
:104750001361CBE75B6D01240FE0059B002BD4D1E7
:104760000BE000214046A84706000443E4B2002EB7
:1047700006D13B685B6B9B0502D4002DF1D1F6E7B7
:10478000002EC2D13B681B6EBFE7002C08D0002E64
:1047900014D1049B002B15D0DA0717D41B0709D5B9
:1047A000059B3B71484607B0F0BCBB46B246A946E4
:1047B000A046F0BD01235B429946F1E702235B422C
:1047C0009946EDE701235B429946E9E701235B4205
:1047D0009946E5E7F0B5D6464F464646C0B50500D2
:1047E0000C000520FDF732FA060060088019210050
:1047F000FDF71CFC0700430099468144052148460B
:10480000FDF714FC80463B1A9A46274B9C4225D85C
:10481000700080192549FDF709FC441C4346023B02
:10482000A34222D32B680022DA662B681A6804217F
:10483000514006220A40802149018C4663441A6097
:104840002B685246DA612B6842461A624B464F2B60
:1048500011D950214846FDF7E9FB0DE070008019A1
:104860001349FDF7E3FB441CD8E7124B124A5D21C4
:104870001248FFF76DFC0120A0232A68D0502B6856
:10488000D86F44402404240C0D4A944663441C60B1
:104890002B680122DA6639003000FDF7C7FBE0BC67
:1048A000BA46B146A846F0BD3F420F008096980038
:1048B00040787D01B455001014560010D4550010F6
:1048C0007C10000010B5164B984224D0042201231E
:1048D0009340144A1360124B98421ED004230122C5
:1048E0009A40114B1A60114B1B6814009C43231E05
:1048F000F9D104710268D46602686624FF3414603A
:104900000268D36302689363883303220468E25029
:10491000FFF760FF10BD0322D9E70323DFE7C0469E
:10492000D802002000E0004000F0004008C0004035
:1049300030B585B008AC2578002402940194009528
:10494000FFF79CFE05B030BD10B583070AD0030009
:10495000032102E001330B4205D01A78002AF9D175
:10496000181A10BD030019680C4A0D4C8A188A43A6
:1049700022420FD15968094A04338A188A432242D5
:1049800008D15968054A04338A188A432242F1D073
:1049900000E001331A78002AFBD1E1E7FFFEFEFEBA
:1049A00080808080F8B5C04601B40248844601BCCE
:1049B000604700BFC901002001B40248844601BC21
:1049C000604700BF1502002001B40248844601BCC4
:1049D000604700BF1502002001B40248844601BCB4
:1049E000604700BF95010020391E0010651E0010B1
:1049F000CD1F0010B92F001071260010152E0010C9
:104A0000011F0010811E0010A11E0010B51E001015
:104A100005110010BD1E0010F5180010251E001015
:084A2000710A0010B102001040
:104A28005261696E3A20252E3166206D6D000000B6
:104A38004C6576656C3A20252E316620636D000042
:104A48004C6576656C3A202D2D2E2D20636D000067
:104A580021287261775F6972715F6D61736B5B6743
:104A680065745F636F72655F6E756D28295D2026BA
:104A7800206770696F5F6D61736B2900433A2F552A
:104A8800736572732F7468616E682F7069636F2F16
:104A98007069636F2D73646B2F7372632F7270323A
:104AA8005F636F6D6D6F6E2F686172647761726599
:104AB8005F6770696F2F6770696F2E630000000071
:104AC80021656E61626C6564207C7C206972715F0F
:104AD8006861735F68616E646C657228494F5F49ED
:104AE80052515F42414E4B30290000006770696F98
:104AF8005F7365745F6972715F656E61626C65642E
:104B0800000000000A2A2A2A2050414E4943202A40
:104B18002A2A0A000A00000064656C7461203E3D80
:104B2800202D323034382026262064656C746120AC
:104B38003C3D203230343620262620212864656CFE
:104B48007461202620312900433A2F55736572730A
:104B58002F7468616E682F7069636F2F7069636F57
:104B68002D73646B2F7372632F7270325F636F6D76
:104B78006D6F6E2F68617264776172655F697271BB
:104B88002F6972712E630000212864656C7461209E
:104B98003E3E20313175290063757272656E74204E
:104BA8003D3D205F5F756E68616E646C65645F751E
:104BB8007365725F697271207C7C2063757272659F
:104BC8006E74203D3D2068616E646C657200000063
:104BD8006972715F68616E646C65725F6368616950
:104BE8006E5F667265655F736C6F745F686561643C
:104BF800203E3D2030000000767461626C655F687D
:104C0800616E646C6572203D3D205F5F756E686102
:104C18006E646C65645F757365725F6972710000BC
:104C2800212828282875696E747074725F74297237
:104C3800656D6F76655F7468756D625F626974280B
:104C4800767461626C655F68616E646C657229294F
:104C5800202D20282875696E747074725F74296914
:104C680072715F68616E646C65725F636861696EBA
:104C78005F736C6F7473292920252073697A656FB7
:104C88006628737472756374206972715F68616EE7
:104C9800646C65725F636861696E5F736C6F7429B9
:104CA8002900000030783163203D3D20282A696EB4
:104CB8007374293E3E313175000000002165786328
:104CC800657074696F6E207C7C206578636570748C
:104CD800696F6E203D3D206E756D202B2056544126
:104CE800424C455F46495253545F495251000000B7
:104CF80066616C736500000069735F736861726553
:104D0800645F6972715F7261775F68616E646C6518
:104D18007228736C6F745F68616E646C65722900C9
:104D2800657863657074696F6E000000666F756EF4
:104D3800640000006972715F6164645F7461696C2A
:104D48005F746F5F667265655F6C697374000000FD
:104D5800696E736572745F626C5F333200000000C5
:104D68006972715F72656D6F76655F68616E646C9C
:104D7800657200006D616B655F6A5F313600000027
:104D88007265736F6C76655F6A5F3136000000008C
:104D98006972715F6164645F7368617265645F689A
:104DA800616E646C657200006972715F7365745F2F
:104DB8006578636C75736976655F68616E646C6548
:104DC8007200000031203D3D202875696E747074B2
:104DD800725F74296C2D3E7370696E5F6C6F636BC4
:104DE80000000000433A2F55736572732F74686191
:104DF8006E682F7069636F2F7069636F2D73646BB2
:104E08002F7372632F636F6D6D6F6E2F7069636F91
:104E18005F73796E632F6D757465782E630000007B
:104E2800746F74616C0000006D74782D3E636F724E
:104E3800652E7370696E5F6C6F636B006C6F636B6C
:104E48005F69735F6F776E65725F69645F76616CC7
:104E58006964286D74782D3E6F776E65722900003D
:104E68006D74782D3E656E7465725F636F756E74D0
:104E7800000000006D757465785F657869740000DE
:104E88006D757465785F656E7465725F626C6F636B
:104E98006B5F756E74696C0072756E74696D655FB1
:104EA800696E69745F6D757465780000706F6F6CFA
:104EB8002D3E74696D65725F616C61726D5F6E75B0
:104EC8006D203D3D2074696D65725F616C61726D26
:104ED8005F6E756D00000000433A2F55736572735D
:104EE8002F7468616E682F7069636F2F7069636FC4
:104EF8002D73646B2F7372632F636F6D6D6F6E2FDD
:104F08007069636F5F74696D652F74696D652E6371
:104F18000000000064656661756C745F616C6172A5
:104F28006D5F706F6F6C5F696E697469616C697AC7
:104F38006564282900000000417474656D7074650B
:104F48006420746F20736C65657020696E73696482
:104F580065206F6620616E20657863657074696F7F
:104F68006E2068616E646C65723B207573652062A3
:104F78007573795F7761697420696620796F752028
:104F88006D75737400000000616C61726D5F706F05
:104F98006F6C5F6765745F64656661756C7400004B
:104FA800616C61726D5F706F6F6C5F6972715F6861
:104FB800616E646C65720000486172647761726545
:104FC80020616C61726D20256420616C726561647A
:104FD8007920636C61696D656400000076636F5FBA
:104FE80066726571203E3D205049434F5F504C4CDE
:104FF8005F56434F5F4D494E5F465245515F485A91
:105008002026262076636F5F66726571203C3D20FE
:105018005049434F5F504C4C5F56434F5F4D41588A
:105028005F465245515F485A00000000433A2F55E9
:10503800736572732F7468616E682F7069636F2F60
:105048007069636F2D73646B2F7372632F72703284
:105058005F636F6D6D6F6E2F6861726477617265E3
:105068005F706C6C2F706C6C2E63000066626469F4
:1050780076203E3D203136202626206662646976F9
:10508800203C3D203332300028706F73745F6469B0
:105098007631203E3D203120262620706F73745FC4
:1050A80064697631203C3D20372920262620287047
:1050B8006F73745F64697632203E3D203120262666
:1050C80020706F73745F64697632203C3D20372905
:1050D800000000007265665F66726571203C3D20C5
:1050E8002876636F5F66726571202F20313629003C
:1050F800706C6C5F696E6974000000002A2828755E
:10510800696E74385F74202A29282828766F6964A4
:10511800202A29726F6D5F7461626C655F666C6FBF
:105128006174292D322929202A2034203E3D20531C
:10513800465F5441424C455F56325F53495A4500D9
:10514800433A2F55736572732F7468616E682F70B8
:1051580069636F2F7069636F2D73646B2F7372634C
:105168002F7270325F636F6D6D6F6E2F7069636F32
:105178005F646F75626C652F646F75626C655F69DB
:105188006E69745F726F6D5F7270323034302E6387
:10519800000000005F5F61656162695F646F75624E
:1051A8006C655F696E6974002A282875696E7438A1
:1051B8005F74202A29726F6D5F7461626C652D328D
:1051C80029202A2034203E3D2053465F5441424C3A
:1051D800455F56325F53495A45000000433A2F5500
:1051E800736572732F7468616E682F7069636F2FAF
:1051F8007069636F2D73646B2F7372632F727032D3
:105208005F636F6D6D6F6E2F7069636F5F666C6F34
:1052180061742F666C6F61745F696E69745F726F19
:105228006D5F7270323034302E6300005F5F6165ED
:105238006162695F666C6F61745F696E69740000B2
:105248004465627567000000626F6F74325F773281
:105258003571303830000000322E312E3100000018
:105268007069636F000000006C63645F6932635F9C
:1052780070726F6A656374004D6179203330203233
:105288003032350005005250DE65F4687858001059
:10529800060052505422A29D80520010060052501F
:1052A800861C03027052001006005250BBFF3CB629
:1052B8006852001006005250ABB3605360520010A1
:1052C80006005250E182887F50520010060052506A
:1052D800D3F0754248520010666E6900666E692BFD
:1052E800000000006E616E00666E692D000000000F
:1052F800863B0010363B0010363B0010903B0010F8
:10530800363B0010363B0010363B0010363B001091
:10531800363B0010363B0010363B00107C3B00103B
:10532800363B0010723B0010363B0010363B001035
:10533800683B0010283C00104E3C0010663C0010F2
:105348004E3C0010083C00104E3C00104E3C001033
:105358004E3C00104E3C00104E3C00104E3C0010DD
:105368004E3C0010443C00104E3C00104E3C0010D7
:105378004E3C00104E3C00104E3C0010723C001099
:10538800A2400010B8400010B8400010B84000100B
:10539800B8400010B8400010B8400010B8400010E5
:1053A800B8400010B8400010B8400010B8400010D5
:1053B800B8400010B8400010B8400010B8400010C5
:1053C800B8400010B8400010B8400010B8400010B5
:1053D800B8400010B8400010B8400010B8400010A5
:1053E800B8400010B8400010B8400010B840001095
:1053F800B8400010B8400010B8400010B840001085
:10540800CA3E00108A3E0010CA3E0010B840001084
:10541800B8400010B8400010B8400010B840001064
:10542800B8400010B8400010B8400010B840001054
:10543800B8400010B8400010B8400010B840001044
:10544800B8400010B8400010B84000107E3C001072
:10545800B8400010B8400010B8400010B840001024
:10546800B8400010B8400010B8400010B840001014
:10547800B84000107E3C00101A3F00107E3C00101F
:10548800CA3E00108A3E0010CA3E0010B840001004
:105498007E3C0010B8400010B8400010B840001022
:1054A800B8400010B84000107E3C00106C4000105E
:1054B800B8400010B8400010923F0010B8400010EB
:1054C8007E3C0010B8400010B84000107E3C001030
:1054D800000000000000F03F000000000000244031
:1054E80000000000000059400000000000408F400C
:1054F800000000000088C34000000000006AF84077
:105508000000000080842E4100000000D01263419A
:105518000000000084D797410000000065CDCD4110
:105528002C2066756E6374696F6E3A200000000067
:10553800617373657274696F6E2022257322206609
:1055480061696C65643A2066696C6520222573225E
:105558002C206C696E65202564257325730A00006C
:105568000D0A00005541525420737464696E00009E
:1055780055415254207374646F75740055415254E8
:1055880020737464696E202F207374646F757400BF
:105598000600525053B4F4A184550010080052502C
:1055A8001200000008005250921000007364615FFE
:1055B80074785F686F6C645F636F756E74203C3DD0
:1055C800206C636E74202D2032000000433A2F5562
:1055D800736572732F7468616E682F7069636F2FBB
:1055E8007069636F2D73646B2F7372632F727032DF
:1055F8005F636F6D6D6F6E2F68617264776172653E
:105608005F6932632F6932632E6300006932635F1A
:105618007365745F6261756472617465000000008F
:105628008C52001098520010A4520010B052001072
:10563800BC520010C8520010D452001098550010E7
:08564800A4550010AC55001040
:1056500003000068EFF3108C72B60268002AFCD0D9
:10566000BFF35F8F04229A56002A0BDB002910D06B
:105670000A6000201B68BFF35F8F00221A608CF362
:1056800010887047D0221206127852B21A71012087
:10569000F0E70020EEE70000F8B5CE46474680B5BB
:1056A0000400170098460368002B20D0D0231B0667
:1056B0001B785BB299462668EFF3108C72B635689A
:1056C000002DFCD0BFF35F8F04256557002D14DB40
:1056D0002368BFF35F8F00221A608CF310883800B4
:1056E000414600F069F80028E5D000200FE00A4BA1
:1056F0000A4AA6210A4800F057F84B46237123684E
:10570000BFF35F8F00221A608CF310880120C0BCA9
:10571000B946B046F8BDC046304E0010884E001065
:10572000EC4D001070B582B0060015001C0001A9F8
:10573000FFF78EFF002807D1019B5BB2D022120633
:10574000127852B2934201D102B070BD2A002300F8
:105750003000FFF7A1FFF7E710B50268EFF3108103
:1057600072B61368002BFCD0BFF35F8F0423C356BF
:10577000002B0ADBFF2303710368BFF35F8F002256
:105780001A6081F3108840BF10BD034B034AD52136
:10579000034800F009F8C046444E00107C4E00104B
:1057A000EC4D00107047C04601B40248844601BC6D
:1057B000604700BF5141001001B40248844601BC5B
:1057C000604700BFB1170010271000000000000064
:1057D00000000100000000000000000000000200C6
:1057E00000000000000000000000030000000000B6
:1057F000000000000000FF000000000001B5486844
:1058000001318E460047704609380149884701BD7D
:10581000CD0F00100000000000000000000000009C
:105820000000000000000000E8020020000000006E
:10583000503300004C33000054330000523300005A
:105840004D5300004D43000053340000433400002A
:105850004944001065450010BD4400107545001016
:1058600000000000000100000040044000000000B3
:08587000000000000000000030
:04000005100001E9FD
:00000001FF
